{
  "_format": "hh-sol-artifact-1",
  "contractName": "Auction",
  "sourceName": "contracts/auction.sol",
  "abi": [
    {
      "inputs": [],
      "stateMutability": "nonpayable",
      "type": "constructor"
    },
    {
      "inputs": [],
      "name": "auctionState",
      "outputs": [
        {
          "internalType": "enum Auction.State",
          "name": "",
          "type": "uint8"
        }
      ],
      "stateMutability": "view",
      "type": "function"
    },
    {
      "inputs": [
        {
          "internalType": "address",
          "name": "",
          "type": "address"
        }
      ],
      "name": "bids",
      "outputs": [
        {
          "internalType": "uint256",
          "name": "",
          "type": "uint256"
        }
      ],
      "stateMutability": "view",
      "type": "function"
    },
    {
      "inputs": [],
      "name": "cancelAuction",
      "outputs": [],
      "stateMutability": "nonpayable",
      "type": "function"
    },
    {
      "inputs": [],
      "name": "endBlock",
      "outputs": [
        {
          "internalType": "uint256",
          "name": "",
          "type": "uint256"
        }
      ],
      "stateMutability": "view",
      "type": "function"
    },
    {
      "inputs": [],
      "name": "getHighestBidder",
      "outputs": [
        {
          "internalType": "uint256",
          "name": "",
          "type": "uint256"
        }
      ],
      "stateMutability": "nonpayable",
      "type": "function"
    },
    {
      "inputs": [],
      "name": "highestBidder",
      "outputs": [
        {
          "internalType": "address",
          "name": "",
          "type": "address"
        }
      ],
      "stateMutability": "view",
      "type": "function"
    },
    {
      "inputs": [],
      "name": "highestBindingBid",
      "outputs": [
        {
          "internalType": "uint256",
          "name": "",
          "type": "uint256"
        }
      ],
      "stateMutability": "view",
      "type": "function"
    },
    {
      "inputs": [],
      "name": "ipfsHash",
      "outputs": [
        {
          "internalType": "string",
          "name": "",
          "type": "string"
        }
      ],
      "stateMutability": "view",
      "type": "function"
    },
    {
      "inputs": [],
      "name": "owner",
      "outputs": [
        {
          "internalType": "address",
          "name": "",
          "type": "address"
        }
      ],
      "stateMutability": "view",
      "type": "function"
    },
    {
      "inputs": [
        {
          "internalType": "uint256",
          "name": "currentBid",
          "type": "uint256"
        }
      ],
      "name": "placeBid",
      "outputs": [
        {
          "internalType": "bool",
          "name": "",
          "type": "bool"
        }
      ],
      "stateMutability": "nonpayable",
      "type": "function"
    },
    {
      "inputs": [],
      "name": "startBlock",
      "outputs": [
        {
          "internalType": "uint256",
          "name": "",
          "type": "uint256"
        }
      ],
      "stateMutability": "view",
      "type": "function"
    }
  ],
  "bytecode": "0x608060405234801561001057600080fd5b50600060068190555033600460016101000a81548173ffffffffffffffffffffffffffffffffffffffff021916908373ffffffffffffffffffffffffffffffffffffffff16021790555033600860006101000a81548173ffffffffffffffffffffffffffffffffffffffff021916908373ffffffffffffffffffffffffffffffffffffffff1602179055506001600460006101000a81548160ff021916908360038111156100ba57fe5b021790555043600181905550600a6001540160028190555060405180602001604052806000815250600390805190602001906100f7929190610105565b5060016005819055506101a2565b828054600181600116156101000203166002900490600052602060002090601f016020900481019282601f1061014657805160ff1916838001178555610174565b82800160010185558215610174579182015b82811115610173578251825591602001919060010190610158565b5b5090506101819190610185565b5090565b5b8082111561019e576000816000905550600101610186565b5090565b610797806101b16000396000f3fe608060405234801561001057600080fd5b50600436106100a85760003560e01c80638da5cb5b116100715780638da5cb5b146101885780638fa8b790146101bc57806391f90157146101c65780639979ef45146101fa578063c623674f1461023e578063f5b56c56146102c1576100a8565b80623495a4146100ad578063083c6323146100cb57806348cd4cb1146100e957806362ea82db146101075780637fb450991461015f575b600080fd5b6100b56102df565b6040518082815260200191505060405180910390f35b6100d3610348565b6040518082815260200191505060405180910390f35b6100f161034e565b6040518082815260200191505060405180910390f35b6101496004803603602081101561011d57600080fd5b81019080803573ffffffffffffffffffffffffffffffffffffffff169060200190929190505050610354565b6040518082815260200191505060405180910390f35b61016761036c565b6040518082600381111561017757fe5b815260200191505060405180910390f35b61019061037f565b604051808273ffffffffffffffffffffffffffffffffffffffff16815260200191505060405180910390f35b6101c46103a3565b005b6101ce610432565b604051808273ffffffffffffffffffffffffffffffffffffffff16815260200191505060405180910390f35b6102266004803603602081101561021057600080fd5b8101908080359060200190929190505050610458565b60405180821515815260200191505060405180910390f35b6102466106a2565b6040518080602001828103825283818151815260200191508051906020019080838360005b8381101561028657808201518184015260208101905061026b565b50505050905090810190601f1680156102b35780820380516001836020036101000a031916815260200191505b509250505060405180910390f35b6102c9610740565b6040518082815260200191505060405180910390f35b600060076000600460019054906101000a900473ffffffffffffffffffffffffffffffffffffffff1673ffffffffffffffffffffffffffffffffffffffff1673ffffffffffffffffffffffffffffffffffffffff16815260200190815260200160002054905090565b60025481565b60015481565b60076020528060005260406000206000915090505481565b600460009054906101000a900460ff1681565b60008054906101000a900473ffffffffffffffffffffffffffffffffffffffff1681565b6002544311156103b257600080fd5b600860009054906101000a900473ffffffffffffffffffffffffffffffffffffffff1673ffffffffffffffffffffffffffffffffffffffff163373ffffffffffffffffffffffffffffffffffffffff161461040c57600080fd5b6003600460006101000a81548160ff0219169083600381111561042b57fe5b0217905550565b600460019054906101000a900473ffffffffffffffffffffffffffffffffffffffff1681565b60006001600381111561046757fe5b600460009054906101000a900460ff16600381111561048257fe5b1461048c57600080fd5b60015443101561049b57600080fd5b6002544311156104aa57600080fd5b6006546005548301116104bc57600080fd5b81600760003373ffffffffffffffffffffffffffffffffffffffff1673ffffffffffffffffffffffffffffffffffffffff1681526020019081526020016000208190555060076000600460019054906101000a900473ffffffffffffffffffffffffffffffffffffffff1673ffffffffffffffffffffffffffffffffffffffff1673ffffffffffffffffffffffffffffffffffffffff1681526020019081526020016000205482116105e2576105d7600554830160076000600460019054906101000a900473ffffffffffffffffffffffffffffffffffffffff1673ffffffffffffffffffffffffffffffffffffffff1673ffffffffffffffffffffffffffffffffffffffff16815260200190815260200160002054610746565b600681905550610699565b6106518260055460076000600460019054906101000a900473ffffffffffffffffffffffffffffffffffffffff1673ffffffffffffffffffffffffffffffffffffffff1673ffffffffffffffffffffffffffffffffffffffff1681526020019081526020016000205401610746565b60068190555033600460016101000a81548173ffffffffffffffffffffffffffffffffffffffff021916908373ffffffffffffffffffffffffffffffffffffffff1602179055505b60019050919050565b60038054600181600116156101000203166002900480601f0160208091040260200160405190810160405280929190818152602001828054600181600116156101000203166002900480156107385780601f1061070d57610100808354040283529160200191610738565b820191906000526020600020905b81548152906001019060200180831161071b57829003601f168201915b505050505081565b60065481565b60008183116107575782905061075b565b8190505b9291505056fea2646970667358221220b75b094f7ae64b3771a88b08d48b89884e40438af4f46dbf4772e5df305e3f5964736f6c63430007030033",
  "linkReferences": {},
  "deployedLinkReferences": {}
}